:020000040000FA
:02000000DC28FA
:08000800080083168514831221
:10001000851C08280030A100183043200830A300B8
:100020001D200310851C0314A20C00001728A30B2D
:1000300010281D2003142208D7280030A1006230A8
:10004000432883161C141A0883169B0AD728030119
:1000500083169A001C1555309D00AA309D009C14F3
:100060009C1830281C119B0AD728A301A200FF303E
:10007000A207031CA307031CD7280330A100E33009
:1000800043203728A101F43EA000A109FE30031C43
:100090004C28A00703184928A0070000A10F4928F1
:1000A000000020185328201855280800013EA700FA
:1000B0000A30A200A301A520A70B5B282408080092
:1000C00089206428A301842003196A282308A10039
:1000D0002208A000200808000310A00DA10DFF3E7B
:1000E00003186C282008D7280310A10CA00CFF3E91
:1000F000031874282008D728A20002308E28A200F6
:1001000003308E28A101A301A20001308E28A10195
:10011000A301A20004308E28A2000530A800230805
:100120002102031D95282208200204300318013003
:10013000031902302805031DFF30D7280038031D9E
:10014000FF300405031DFF30D728A501A40110309E
:10015000A600210DA40DA50D2208A4022308031C4E
:10016000230FA5020318BB282208A407230803189D
:10017000230FA5070310A00DA10DA60BA928200889
:10018000D7281030A800A101A001A70CA60C031CC1
:10019000CF282208A00723080318230FA107A10CCA
:1001A000A00CA50CA40CA80BC5282408D7288313E1
:1001B00003138312000008008B17E1288B1B080033
:1001C000EE2A1A29003081000B110519EC280B1DAD
:1001D000E528FF30E00008000108E0000800C33017
:1001E00081000B11051DF7280B1DF228FE28693030
:1001F00081000B11051900290B1DFA286514080050
:100200000108E00008001330F0008B180800F00B24
:100210000529F10B0329080083161C14831208001A
:1002200083161C158B1355309D00AA309D009C141D
:1002300083120800831678308F00831207309900EC
:100240008316910183120A309300831604308100D3
:10025000960137309500831281018B120430920091
:10026000950183160F3085008701831285011B30AD
:100270008700E514EC01A426831623309200643035
:1002800083124707C10048080318013EC20001302D
:10029000D600FD253230352039260A30352004308D
:1002A000D600FD25E51C5629051C012CE510A230C1
:1002B000C500C601D130BF00C0010F260715831647
:1002C000071183120130A3002C303620A4252130E1
:1002D000E900BB250130A300F43036206808E900AE
:1002E000BB25071183160711831280308B000B1674
:1002F0008316011383128B10DE200430D600DE201B
:10030000FD25DE206C08033C0319902EDE20051C21
:100310009029DE20851C1B2ADE20D401DE208129C5
:10032000DE20013068020318B029DE202430C50029
:10033000C601DE202F30BF00C001DE200230D60013
:10034000DE20FD25DE208230DC00DE208226DE205D
:100350008230DC00DE208226DE200F26DE20072A07
:10036000DE209A22DE201130C500C601DE202230B8
:10037000BF00C001DE200230D600DE20FD25DE20D9
:100380008230DC00DE208226DE208230DC00DE20AF
:100390008226DE200F26DE20E803DE206808E90042
:1003A000DE20BB25DE200130DB000B305B020318B2
:1003B000E129DE205708DC00DE208226DE20DB0F6C
:1003C000D529DE2083162F08023C8312031DF02955
:1003D000DE206808003C0319072ADE208129DE2080
:1003E000DE2083162F08003C83120319072ADE2023
:1003F0006808003C0319072ADE20D40ADE205408CE
:100400008316300283120319072ADE208129DE2099
:100410000130EF00C9306F020318162ADE200230C7
:10042000F100DE200321DE20EF0F0A2ADE20051C6A
:10043000072ADE208129DE20680883162D02831218
:100440000319852ADE204F08A0005008A100A3014F
:1004500000307C20031D852ADE206808CF070318A2
:10046000D00ADE20E801DE202F25DE204F08A00084
:100470005008A10083162D088312A200A301A52015
:10048000C9002108CA006330A000A1014A08A300E6
:1004900049086320E900DE209525DE206430E7006E
:1004A000DE200130DB004C305B020318662ADE20C0
:1004B000831632088312DC00DE208226DE206C08E0
:1004C000033C0319902EDE20DB0F532ADE20E703C6
:1004D000DE20013067020318502ADE204F08A000FA
:1004E0005008A10083162D0883126220E800DE2048
:1004F0006808CF02031CD003DE206808E900DE2074
:10050000BB25DE20FB24DE207C29DE206430410276
:10051000E900DE208925DE20FA30DC00DE2082269C
:10052000DE20851C8B2ADE206808E900DE20BB2542
:10053000DE207C290C3095000930A100603043207A
:10054000950187127F30831622058312D900083067
:10055000E400CC22831621088312A000A1010630FA
:100560006F20C9002108CA0083162C088312A0003E
:10057000A10102306F20CB002108CC0049084B04B8
:10058000D9008316200C83120318D914031CD91028
:100590000730E400CC2208000130D1005108640289
:1005A000031CED2A0230A10058304320D91BE22A57
:1005B0000C3095000230A10058304320950187127D
:1005C000D90DEB2A0C3095000430A100B030432047
:1005D00095018712D90DD10FCE2A08006510E220AF
:1005E00089306002031CA72BA43060020318A72BDC
:1005F0000830E4003C256518A22B5908DA00DA1F00
:10060000062B3C256518A22B8B10A92B0730E40084
:100610003C256518A22B6C08003C031DA72B7F30DE
:100620005A05E60060305905ED006D08A000A101F3
:1006300005307720ED00831683103A198314831256
:100640008318282B6D088316210283120319A72B08
:100650001E305905EE000310EE0C6A256E30E700DF
:1006600058084102C9004208031CFF3ECA0064301A
:10067000A000A1014A08A30049086020C100210888
:10068000C2006430A000A1014208A30041088C20F0
:10069000031D4D2B0330EC00A72B83168310B51DD3
:1006A000831483128318582B07158316071183129E
:1006B000ED2483163C08003C831203198F2B043071
:1006C00083163C0283120318762BFA30A600A7018A
:1006D00083163C088312A200A301C120CD00250887
:1006E000CE004E08A3004D0836208F2BFD30831618
:1006F0003C078312C900FF300318013ECA00E830EE
:10070000A6000330A7004908A2004A08A300C120A0
:10071000CD002508CE004E08A3004D083620071155
:10072000831607118312FA3035204108A0004208D1
:10073000A100A30179307F20031DA12B2625FA30CB
:100740003520A72B6C08033C0319A72BF4248B102E
:1007500009007F305A05E2005908E1003C25651880
:10076000FC2B6208003C0319D42B6208033C0319DC
:10077000A12C6208073C03193D2C6208133C0319A5
:10078000C22BFC2B831602309B00831261082820A9
:10079000852C6C08003C03197C2961088316210212
:1007A0008312031DFC2BD22C6C08033C0319FC2B79
:1007B00064304707CD0048080318013ECE004108C9
:1007C000A0004208A1004E08A3004D087F20031D91
:1007D000FC2B61084107C90042080318013ECA000A
:1007E0004908A0004A08A1004E08A3004D08632054
:1007F000C1002108C20017256C08033C0319A22E72
:100800007C29071583160711831264303520051CD7
:10081000052C643035202C246E08C53C031D0B2CA0
:10082000DF011F305F0203181D2C2C245F08A03E3F
:1008300084006E088000DF0F112C83163E08AC3C4C
:100840008312031D3B2C831632309B003D089A0017
:1008500083121021EB016F2C0520EE00463035206D
:1008600007158316071114308312352007118316DC
:1008700007118312080010251A296108CA3C0319C0
:10088000FC2BD5010130DF0007305F0203184D2C2F
:100890003C255908D507DF0F442C0830DF001D30F8
:1008A0005F0203185D2C3C255F08A03E84005908B8
:1008B00080005908D507DF0F4F2C1D30DF0029308D
:1008C0005F020318682C3C255908D507DF0F5F2C01
:1008D0003C2555085902031D9B2C0330EB006B0887
:1008E000DF001D305F020318852C5F0883169B0014
:1008F00083125F08A03E8400000883169A008312CA
:10090000102114303520DF0F712C09250130EE0045
:1009100006306E0203189A2C07158316071146300D
:100920008312352007118316071164308312352096
:10093000EE0F882C1A2910250130A300F430362040
:10094000FC2B6108003C0319CA2C61080B3C0319FD
:10095000CA2C6108043C0319CE2C6108053C03191C
:10096000D22C6108063C0319D82C6108073C0319F6
:10097000CB2C14306102031CDF2C071583160711E2
:1009800083120130A3002C30362007118316071183
:100990008312FC2B902E0330EC00992E6C08003C47
:1009A00003197C29EC0107118316071183123A29D8
:1009B0006C08003C031DFC2BE42509257C29103024
:1009C0006102031CFC2B103061028316A100013070
:1009D0009B002108831228201A296430C500C60113
:1009E0007B30BF00C001352D5130C500C6016230DB
:1009F000BF00C001352D3E30C500C6014F30BF00DD
:100A0000C001352D7D30C500C601A030BF00C0013A
:100A1000352DD330C500C601DE30BF00C001352DF5
:100A2000E030C500C601EB30BF00C001352DED3010
:100A3000C500C601FE30BF00C001352DC501013023
:100A4000C6001130BF000130C000352D1330C50085
:100A50000130C6002430BF000130C000352D3130D8
:100A6000C500C6013C30BF00C0010230D600FD25E4
:100A7000193035200F2608000130D10051086402DA
:100A8000031C692D5908A600A7010230A200A3018A
:100A9000C120D900EF20651C4E2D08006008A00081
:100AA000C1308720C9006008A00082308220CB00BE
:100AB000490884004B089E20031D602D6514080022
:100AC000A23060020318662D5910672D5914D10FFA
:100AD0003E2D08006E080F3C031C882D7125D800A0
:100AE000882D05308A006E08783E03188A0A820035
:100AF000013402340434053407340A340F34113419
:100B0000143419341E342334283432344B346434CE
:100B100008008711831687118312871083168710A8
:100B200083124830D3006B26C62D87118316871198
:100B3000831287108316871083124330D3006B26ED
:100B40007830D3006B26CD2D871183168711831241
:100B500087108316871083127A30D3006B265208D1
:100B6000D3006B268714831687108312871583168C
:100B7000871183120800871183168711831287104B
:100B80008316871083127830D3006B266908A00083
:100B9000A10102305620D3006B266908A000A101F4
:100BA00001305620D3006B266908A000A101003057
:100BB0005620D3006B26871483168710831287155F
:100BC000831687118312080083162E088312A6004D
:100BD000A70183162D088312A200A301C120CF0014
:100BE0002508D00083162D088312E80083162D08EF
:100BF0008312CF02031CD0030800071283160712CA
:100C000083125608D30054265308B800D301542643
:100C10005308B9000716831607128312080007123B
:100C20008316071283128030D30054265308B8006D
:100C3000D30154265308B9004508D300542653085D
:100C4000BA004608D30054265308BB003F08D3001F
:100C500054265308BC004008D30054265308BD0056
:100C6000D30154265308BE000716831607128312B9
:100C7000080007128316071283126530D30054262A
:100C80005308B800C030831623048312D3005426BF
:100C90005308B9000D30D30054265308BA00071684
:100CA0008316071283120800EA0108306A0203184B
:100CB0006A2E53180714531C0710871183168711C7
:100CC000831287158316871103108312D30CD31355
:100CD000EA0F552E0800EA0108306A020318812E37
:100CE000D31B0714D31F0710871583168711831290
:100CF00087118316871103108312D30D5310EA0F47
:100D00006C2E0800DE200230F100DE200321DE2000
:100D1000DC03DE2001305C020318822EDE20080096
:100D2000071583160711831202250F30A300A03088
:100D300036200330EC0007158316071183121E2599
:100D4000E901BB25DE20A22EDF011D305F02031862
:100D5000B72E5F0883169B0083120C215F08A03E0C
:100D6000840083161A0883128000DF0FA52E8316D5
:100D700032309B0083122120D200831631080C3CB4
:100D80008312031CDC2EC626D700DC2E06308A0018
:100D9000831631088312CF3E03188A0A8200C334B7
:100DA0009B347E34693458344B34403437342F34D8
:100DB000293423341E34FF3483162D08003C83125B
:100DC000031DE62E83160130AD008312831636080C
:100DD0008312EE0015306E020318F22E6E08C70063
:100DE000C8013B2F39306E020318122F1430C70090
:100DF000C801EC306E07CD00FF300318013ECE0075
:100E00004D08A6004E08A7000530A200A301C1208E
:100E1000CD002508CE004D08C7074E080318013E37
:100E2000C8073B2FC830C700C801C8306E07CD00C7
:100E3000FF300318013ECE004D08A6004E08A70063
:100E40003230A200A301C120CD002508CE004D08FC
:100E5000C7074E080318013EC807E830A00003305A
:100E6000A1004808A30047088C20031D3B2FE73052
:100E7000C7000330C800E425831621088312ED0063
:0E0E8000831622088312E60008006300452F47
:02400E00C430BC
:084200000000000000000000B6
:08421800050032001E00020047
:064220000300060004008B
:064228000A00080024005A
:02423400040084
:02423800020082
:02426400FF0059
:00000001FF
